:1000000012C02CC02BC02AC029C028C027C026C0BF
:1000100025C024C023C034C021C020C01FC01EC0C2
:100020001DC01CC01BC011241FBECFE5D4E0DEBF25
:10003000CDBF10E0A0E6B0E0ECEDF0E002C005902E
:100040000D92AC36B107D9F720E0ACE6B0E001C0C4
:100050001D92AC36B207E1F702D03EC0D1CF83E3A8
:1000600090E01CD078942FEF89E698E121508040F1
:100070009040E1F700C0000080E690E01BD0F3CF95
:100080001F920F920FB60F9211248F938CB18CB9DF
:100090008F910F900FBE0F901F9018951BB828E9F5
:1000A0002AB926E820BD90BD89B908955D9BFECF91
:1000B0008CB90895CF93DF93EC018881882329F0D0
:1000C0002196F4DF89918111FCCF8DE0EFDF8AE08A
:0C00D000EDDFDF91CF910895F894FFCF91
:0C00DC0048656C6C6F20576F726C6400FC
:00000001FF
