S01200004C4344446973706C61792E7372656369
S113000012C024C023C022C021C020C01FC01EC0F3
S11300101DC01CC01BC01AC019C018C017C016C010
S113002015C014C013C011241FBECFE5D4E0DEBF39
S1130030CDBF10E0A0E6B0E0EAEBF1E002C005902D
S11300400D92AE36B107D9F7A8D0B5C0D9CF92B3C7
S1130050982B92BB92B38F60892382BB929A82B30E
S11300608C7F82BB89EF90E00197F1F700C000001C
S113007082B3887F82BB0895CF93C82F807FE7DF48
S113008083EC99E00197F1F700C000008C2F829572
S1130090807FDDDFCF91089581B38FEF81BB2FE99E
S11300A086E891E0215080409040E1F700C00000D4
S11300B083E3E2DF87EA91E60197F1F700C00000ED
S11300C082E3DADF87EA91E60197F1F700C00000E6
S11300D088E2D2DF87EA91E60197F1F700C00000D9
S11300E08CE0CADF87EA91E60197F1F700C00000CF
S11300F081E0C2DF87EA91E60197F1F700C00000D2
S113010086E0BADF87EA91E60197F1F700C00000C4
S113011082E0B2DF8FE493EC0197F1F700C00000B6
S1130120089592B3982B92BB92B38F60892382BBBC
S113013082B3856082BB919889EF90E00197F1F7D3
S113014000C00000909A82B3897F82BB0895CF9348
S1130150C82F807FE6DF8C2F8295807FE2DFCF91EE
S11301600895CF93DF93EC0180E886DF87E893E17D
S11301700197F1F700C000008881882359F0219687
S1130180E6DF81EE94E00197F1F700C00000899169
S11301908111F6CFDF91CF9108957EDF2FEF89E6AD
S11301A098E1215080409040E1F700C0000080E6D3
S10D01B090E0D7DFFFCFF894FFCFF3
S11101BA48656C6C6F20576F726C64212100D5
S9030000FC
