:1000000012C019C018C017C016C015C014C013C044
:1000100012C011C010C00FC00EC00DC00CC00BC06C
:100020000AC009C008C011241FBECFE5D4E0DEBF5E
:10003000CDBF11D027C0E4CF99BD88BD08958FB53D
:10004000826A8FBD8EB58B618EBD83EC99E097BDC2
:1000500086BDBA9A0895F3DFC4E6D0E004E610E066
:10006000CE01EADF2FEF80E792E021508040904000
:10007000E1F700C000002196CA3FD1058CF3C02FE4
:08008000D12FEECFF894FFCF61
:00000001FF
