:1000000012C02CC02BC02AC029C028C027C026C0BF
:1000100025C024C023C022C021C020C01FC01EC0D4
:100020001DC01CC01BC011241FBECFE5D4E0DEBF25
:10003000CDBF10E0A0E6B0E0E6E8F3E002C0059036
:100040000D92A03BB107D9F720E0A0EBB0E001C0D2
:100050001D92A43BB207E1F7F1D093C1D1CFFB01D0
:10006000982F92959F70292F30E02A3031051CF08F
:10007000995C908302C0905D90838F70282F30E050
:100080002A3031051CF0895C818302C0805D818348
:100090001282089584B38C7F84BB85B3836085BB53
:1000A00008959FE090B911B894EE96BF06B607FE8A
:1000B000FDCF90ED93B994E896BF06B607FEFDCF4D
:1000C00083B984E886BF06B607FEFDCF63B984E82E
:1000D00086BF06B607FEFDCF84ED86BF08959FE07C
:1000E00090B911B894EE96BF06B607FEFDCF90ED1D
:1000F00093B994E896BF06B607FEFDCF83B984E8AE
:1001000086BF06B607FEFDCF84EE86BF06B607FEA5
:10011000FDCF81ED83B984E886BF06B607FEFDCF2B
:1001200084E886BF06B607FEFDCF83B194ED96BF87
:100130000895FF920F931F93CF93DF938C01EB01F0
:10014000F42E213049F4FC01908161816053F0E18B
:100150009F9F600D112438C0FC018081880F80565C
:10016000682F660F660F860F9181682F690F80EDEB
:10017000860F8C30A8F06C539DEC699F912D112453
:10018000969596959695892F880F282F220F220FE6
:10019000820F681BF0E19F9F600D1124606614C000
:1001A0009DEC899F912D1124969596959695292FD2
:1001B000220F322F330F330F230F682F621B80E182
:1001C000989F600D1124606482E06BDFF8018381E9
:1001D00064816053F0E18F9F600D112481E061DF45
:1001E000F801868167816053F0E18F9F600D1124D3
:1001F00080E057DF88816981605390E1899F600DBD
:10020000112484E04EDF8B816C816053E0E18E9F8E
:10021000600D112485E045DF8E816F816053F0E130
:100220008F9F600D112486E03CDF6F2D83E039DF66
:10023000DF91CF911F910F91FF90089583E390E09C
:1002400074D028DF21E04091600061E670E089E62B
:1002500090E06FDF2FEF89E698E1215080409040D9
:10026000E1F700C0000081E790E079D088E990E0F4
:1002700068D082E034DF8093B00061EB70E0EFDEA5
:1002800081EB90E05ED080EA90E05BD081E027DFF8
:100290008093B00061EB70E0E2DE81EB90E051D042
:1002A00080EA90E04ED080E01ADF8093B00061EBEE
:1002B00070E0D5DE81EB90E044D082EA90E041D05E
:1002C00086EA90E03ED084E00ADF8093B00061EBE4
:1002D00070E0C5DE81EB90E034D08EEA90E031D062
:1002E00085E0FDDE8093B00061EB70E0B8DE81EB6D
:1002F00090E027D08EEA90E024D086E0F0DE809374
:10030000B00061EB70E0ABDE81EB90E01AD08DE0E5
:1003100014D08AE012D02FEF89E698E12150804076
:100320009040E1F700C00000A1CF1BB828E92AB92E
:1003300026E820BD90BD89B908955D9BFECF8CB99C
:100340000895CF93DF93EC018881882329F02196CB
:10035000F4DF89918111FCCFDF91CF910895CF9384
:10036000DF93EC018881882329F02196E6DF8991CB
:100370008111FCCF8DE0E1DF8AE0DFDFDF91CF91FB
:060380000895F894FFCF80
:100386000730393A31323A313531373A33303A304B
:1003960030546869732070726F6772616D2069737B
:1003A60020646576656C6F70656420627920456CA3
:1003B600656D656E747A200054494D453A202000DB
:1003C6003A0020202000444154453A2020002F00C6
:00000001FF
