:1000000012C02CC02BC02AC029C028C027C026C0BF
:1000100025C024C023C022C021C020C01FC01EC0D4
:100020001DC01CC01BC011241FBECFE5D4E0DEBF25
:10003000CDBF10E0A0E6B0E0E8E9F0E002C0059036
:100040000D92A036B107D9F710E0A0E6B0E001C0EC
:100050001D92A036B107E1F702D01CC0D1CFB89AEB
:10006000C09820E137E248EC50E005C0CA01019792
:10007000F1F72150304021153105C1F7C09A80E1D8
:1000800097E2FA013197F1F70197D9F7C09820E18B
:0800900037E2ECCFF894FFCF3A
:00000001FF
