S01C000044434D6F746F725F5370656564436F6E74726F6C2E737265633F
S113000012C019C018C017C016C015C014C013C040
S113001012C011C010C00FC00EC00DC00CC00BC068
S11300200AC009C008C011241FBECFE5D4E0DEBF5A
S1130030CDBF02D026C0E4CF18D0B89AB99881B306
S11300408C6081BBB19B07C0C09A929A939884EF4D
S113005091E008D0F7CFC0989298939A83EC99E0F6
S113006001D0F0CF99BD88BD08958FB5826A8FBD48
S11300708EB58B618EBD83EC99E097BD86BDBA9A2F
S10900800895F894FFCF7F
S9030000FC
