S012000073657269616C546573742E73726563F2
S113000012C02CC02BC02AC029C028C027C026C0BB
S113001025C024C023C022C021C020C01FC01EC0D0
S11300201DC01CC01BC011241FBECFE5D4E0DEBF21
S1130030CDBF10E0A0E6B0E0EEEBF0E002C005902A
S11300400D92AC36B107D9F720E0ACE6B0E001C0C0
S11300501D92AC36B207E1F702D02FC0D1CF83E3B3
S113006090E00DD02FEF89E698E121508040904038
S1130070E1F700C0000080E690E00DD0F3CF1BB89C
S113008028E92AB926E820BD90BD89B908955D9B69
S1130090FECF8CB90895CF93DF93EC018881882338
S11300A029F02196F4DF89918111FCCF8DE0EFDFF7
S11100B08AE0EDDFDF91CF910895F894FFCF41
S10F00BE48656C6C6F20576F726C640016
S9030000FC
