:1000000012C02CC02BC02AC029C028C027C026C0BF
:1000100025C024C023C022C021C020C01FC01EC0D4
:100020001DC01CC01BC011241FBECFE5D4E0DEBF25
:10003000CDBF10E0A0E6B0E0E8E4F3E002C0059038
:100040000D92AA36B107D9F720E0AAE6B0E001C0C8
:100050001D92A037B207E1F710D074C1D1CF3E9AFC
:1000600086B1876886B9089587B187B9369A349B77
:10007000FECF349A84B195B10895F1DF7DD080E64A
:1000800090E0DFD080916A008F5F80936A0080E00B
:10009000EBDF44E06BE670E019D08BE690E0EDD04A
:1000A00080916A0043E06BE670E090E00FD04BE691
:1000B00050E06AE082E0FDD02FE78AE196E021502F
:1000C00080409040E1F700C00000DCCFFB014230EF
:1000D00049F46AE070E00FD1605D6083805D8183E8
:1000E00012820895433071F464E670E004D1605DDB
:1000F00060836AE070E0FFD0605D6183805D828331
:1001000013820895443091F468EE73E0F4D0605D9A
:10011000608364E670E0EFD0605D61836AE070E068
:10012000EAD0605D6283805D83831482089592B318
:10013000982B92BB92B38F60892382BB929A82B331
:100140008C7F82BB89EF90E00197F1F700C000003F
:1001500082B3887F82BB0895CF93C82F807FE7DF6B
:1001600083EC99E00197F1F700C000008C2F829595
:10017000807FDDDFCF91089581B38FEF81BB2FE9C1
:1001800086E891E0215080409040E1F700C00000F7
:1001900083E3E2DF87EA91E60197F1F700C0000010
:1001A00082E3DADF87EA91E60197F1F700C0000009
:1001B00088E2D2DF87EA91E60197F1F700C00000FC
:1001C0008CE0CADF87EA91E60197F1F700C00000F2
:1001D00081E0C2DF87EA91E60197F1F700C00000F5
:1001E00086E0BADF87EA91E60197F1F700C00000E8
:1001F00082E0B2DF8FE493EC0197F1F700C00000DA
:10020000089592B3982B92BB92B38F60892382BBDF
:1002100082B3856082BB919889EF90E00197F1F7F6
:1002200000C00000909A82B3897F82BB0895CF936B
:10023000C82F807FE6DF8C2F8295807FE2DFCF9111
:100240000895CF93DF93EC0180E886DF87E893E1A0
:100250000197F1F700C000008881882359F02196AA
:10026000E6DF81EE94E00197F1F700C0000089918C
:100270008111F6CFDF91CF910895CF93DF93EC01F9
:1002800080EC6ADF87E893E10197F1F700C0000096
:100290008881882359F02196CADF81EE94E0019786
:1002A000F1F700C0000089918111F6CFDF91CF9165
:1002B0000895CF93DF93EA01813019F480E8860F27
:1002C00002C080EC860F48DF87E893E10197F1F7E1
:1002D00000C000008881882359F02196A8DF81EEB4
:1002E00094E00197F1F700C0000089918111F6CFE9
:1002F000DF91CF91089597FB072E16F4009406D056
:1003000077FD08D00BD007FC05D03EF49095819581
:100310009F4F0895709561957F4F0895AA1BBB1B51
:1003200051E107C0AA1FBB1FA617B70710F0A61BF5
:10033000B70B881F991F5A95A9F780959095BC0116
:08034000CD010895F894FFCFF0
:0A0348004144432056616C756500C6
:00000001FF
